:100DC40050493A30302E3020502D443A20202E20E5
:100DD40000444F3A30302E3020442F503A203025F2
:0C0DE40020003E533C20003E573C200005
:100B24006035001800000000000000000000000014
:100B340000000000000000000000000000000000B1
:100B440000000000000000000000000000000000A1
:100B5400000000000000000000C10042004F00003F
:100B640042004D000044000D3B9FFFE54400570048
:100B7400000000440053000000004400080000008E
:100B84000044000200000000440013000000004183
:100B94000012004100170042000000004200510012
:0C0BA4000048005B55AA1234000000005D
:1009E800E0FEA3E0FF7C007D641203DB7E007F0A4B
:1009F800CFCDCFCECCCE1203DBEF2430FB22FC9040
:100A08000073120584900073E0FCA3E0FDA3E0FEF0
:100A1800A3E022E0FCA3E0FDE41202C990000DE08F
:100A2800F8A3E0F9A3E0FAA3E0FB227F0D120F710F
:100A3800900067E0FEA3E0FF7C007D0A1203DBED77
:100A48002430FB227F647E00120EEF90006EE004DB
:100A5800F022E59054F0FBECC4540FFF4BF59012D4
:100A68000F19EC540FFFAE034EF59022900072E080
:100A780025E0FF900071E033FE22FE120D57E4904E
:100A8800006DF0A3F022F0A3F0A3F0A3F0A3F022EE
:100A9800C390006EE0941490006DE0940022F07B07
:100AA800017A00791B227DF97F02120EDF7DF9128F
:100AB8000EDF7DF922EBF0A3EAF0A3E9F022E0FBD8
:100AC800A3E0FAA3E0F922900012E0F58C90001759
:100AD800E0F58A22741E2FF58274003EF583EDF04E
:100AE8002290006DE004F022741F2FF58274003EFE
:100AF800F583ED221205847B0A7AD779A3783B2205
:100B0800FFE0FCA3E0FDC39FEC9E222400FFEC3E27
:0C0B1800F0A3EFF022EDF07C007D6422E1
:100ECD00AC07E4FB7F0F7D01120EDF7D01120EDFFB
:020EDD007D0195
:080EDF00AE05AD07DDFEDEFAF1
:010EE70022E8
:100EB0007F28120F3E120F197F28120F3E7F0C124F
:0D0EC0000F3E7F01120F3E120AAE020EDF40
:100F1900D2B77F01120ED3C2B77D01120EDF7D0158
:030F2900020EDFD6
:0E0F3E00120ECDC2B3120ED8120A5A020F19AB
:0E0F4C00120ECDD2B3120ED8120A5A020F198D
:0B0F66007F01120F3E120AAE020EDFE8
:100F2C00AE07ED6005EE44C08003EE4480FF120F67
:020F3C003E2253
:0A0F7100AA03120F2CAF02020F4C6E
:100E4400900073120ABD120F2C900073120AC6127E
:100E54000383FF600F120F4C900074E475F00112CD
:050E6400043080E522CE
:100D1500E4FBF582F583EF6DFDEBC39408748094D5
:100D2500805024758300ED5401F582ECC313FCED6E
:100D350013FDEC547FFCE58264017008EC64A0FCB3
:0B0D4500ED6401FD0B80D2AE04AF0591
:010D50002280
:0C0CB300900075120ABDA3ECF0A3EDF058
:100CBF0074FF90007CF0A3F0E490007AF0A3F09022
:100CCF000078E0FEA3E0A3120B08503190007512DC
:100CDF000AC68D828C8312039CFF90007CE0FCA3DC
:100CEF00E0FD120D1590007CEEF0A3EFF090007B6D
:100CFF00E004F070CA90007AE004F080C290007CAB
:050D0F00E0FEA3E0FF7F
:010D140022BC
:100F0100ED24FEFDEC34FFFC120CB3AC06EC9000BA
:070F11007EF0A3EFF07F0169
:010F180022B6
:100E6900C3ED9408EC940050037FFF22ED24FEFDAE
:100E7900EC34FFFC120CB3AC06EC900073F0A3EF5A
:030E8900F07F00F7
:010E8C002243
:040C3D00AB07AA0651
:100C4100900073120590000E1000AE02AF03E4FC99
:100C5100FD900073120A27120446E47BE87A03F937
:100C6100F81204D1900073120584900073120A27C0
:100C7100C3E49BFFE49AFE740199FDE498120A060D
:100C81002412FFE43EFEE43DFDE43C120A06FF7837
:100C910008120571900012EFF0900073A3A3A3E076
:100CA100900017F05389F0438901120ACFD2A9D2DB
:010CB1008CB6
:010CB200221F
:10000E007598D053890F438920758DFD758BFDD260
:04001E008ED2AC22B0
:100D8D00900019E06401700BF0900018F090001ABB
:100D9D00F0800390001AE0FE04F0741B2EF582E43F
:100DAD003400F583EFF0E4900000F0A3F0900051D3
:070DBD00F0A304F07F002207
:03000B00020DF0F3
:100DF000C0E0C083C082120ACF900051E07004A30B
:100E0000E06401700E900001E004F07006900000B4
:0A0E1000E004F0D082D083D0E0327D
:03002300020E1AB0
:0F0E1A00C0E0C083C082C0D075D000C006C00742
:0E0E290030980BC298AF99A2D0929A120D8DFC
:0D0E3700D007D006D0D0D082D083D0E032DA
:0C0F5A00A2D0929B8F993099FDC2992281
:060E8D00900073120ABD83
:100E9300E4FEEEC39D5015900073120AC68E827550
:0C0EA300830012039CFF120F5A0E80E621
:010EAF002220
:070EE800120D577F017E008F
:100EEF007C007D5D1203C9EF1FAC0670011E4C70B4
:010EFF00F6FC
:010F000022CE
:060D5100120F71E4FFFE29
:100D5700EF7806C333CE33CED8F9FFC296C297E4F5
:100D6700FDEDC3940C748094805018EE30E704D2E4
:100D7700958002C295D296EF25E0FFEE33FEC2962C
:050D87000D80DED29793
:010D8C002244
:03000300020006F2
:03000600D20032F3
:1005ED00E4900065120A8EA3120A8EC2B6D2AF7FB6
:1005FD0001FE120C3D12000ED2B4E4F597D2B5D225
:10060D0094D2B57F64FE120EEF120EB0120F661269
:10061D0009CE7B20E4FD7F0F120D5190000C74AAC2
:10062D00F0900011F09000067455F0A3F0C3900007
:10063D0001E0940A900000E09400500302073FE4AB
:10064D00900051F0A3F0900000F0A3120AA69000C4
:10065D001AE0FD7C00120E6990001CE024FC600382
:10066D0002072090001DE0FEA3E07C0090006F12B9
:10067D000B1390001FE0FEA3E0900071120B13907E
:10068D00001B7401F0A37404F0EF25E0A3F0E490D7
:10069D000065F0A3F0900071E0FEA3E090006512FC
:1006AD000B085036ED25E0FFEC33FE745B2FF58221
:1006BD0074003EF583E0FD120ADC745C2FF5827444
:1006CD00003EF583E0FD120AF0F0900066E004F0C4
:1006DD0070C3900065E004F080BB120AA7120A7483
:1006ED00EF2403FDE43EFC120CB3AD07AC06120A79
:1006FD0074120ADCAE04EEFD120A74120AF0120A2C
:10070D00A6900071A3E025E02405FD120E8DE49066
:10071D00001AF0120AA790001AE0FD120E8D90003B
:10072D001AE0FF7E007D00120AA71205C1E49000B9
:10073D001AF0D29430940302063AE4FFFE120D57DC
:10074D001209CE7F0A7E00120EEF7FFF7E03120A82
:10075D0083120A4C7003120AE9120A9840F3E4FF5F
:10076D00120A82120A4C7003120AE9120A9840F317
:10077D0020B2087BFF7A0D79E6804BE4900065F09E
:10078D00A3F0900065E0FEA3E0FFC3EE94045027B4
:10079D00120EE820B211900065E0FFA3E090004F2B
:1007AD00CFF0A3EFF08010900066E004F070D390CE
:1007BD000065E004F080CB30B216E4FFFE120D5759
:1007CD007BFF7A0D79EBE4FD7F03120E4402063AAE
:1007DD00120A867F01120A4E7003120AE9C39000B5
:1007ED006EE0940A120A9F40EA900050E02466FFE2
:1007FD0090004FE03400120A827F01120A4E7003FE
:10080D00120AE9C390006EE0940A120A9F40EA9022
:10081D00004F120A1B12011E900057120AFC900085
:10082D0057120A10FF12022790000812058490003B
:10083D0008120A10FF12030290006BEEF0FAA3EFFC
:10084D00F090006BE0FCA3E0FDEC90000CF090004C
:10085D0011120B1D1209FEE4FD7F03120F719000A2
:10086D006B1209E8E4FD7F04120F7190006B120A00
:10087D003BE4FD7F06120F71900050E02466FE9060
:10088D00004FE03400900065F0A3CEF0900065E0DD
:10089D00FEA3E0FFD39400EE94004027120EE83043
:1008AD00B211900065E0FFA3E090004DCFF0A3EFF3
:1008BD00F08010900066E024FFF0900065E034FFBA
:1008CD00F080C990004D120A1B12011E90005312A8
:1008DD000AFC900053120A10FF1202279000021218
:1008ED000584900002120A10FF120302900069EEB7
:1008FD00F0FAA3EFF0900069E0FCA3E0FDEC9000AE
:10090D0006F0A3120B1D1209FE7D017F03120F715C
:10091D009000691209E87D017F04120F7190006942
:10092D00120A3B7D017F06120D51C2B590000812CF
:10093D000A27900002120A10FF12022790001312CC
:10094D000584E4FFFE7DC87C42900013120A271235
:10095D00011EE4FBFAF9783F12002D1203029000FC
:10096D0067EEF0A3EFF07C007D0A1209FE7D011207
:10097D000A337D017F0E120F71A3E0FEA3E0FFC3CA
:10098D0090006CE09FFF90006BE09EFE900067F082
:10099D00A3EFF07C007D641209FEE4FD7F0C120FC5
:1009AD00719000671209E8E4FD120A33E4FD7F0F30
:1009BD00120F71C2B57F647E00120EEFD2B5020622
:0109CD003AEF
:1009CE007BFF7A0D79C4E4FDFF120E447BFF7A0D96
:0A09DE0079D57D01E4FF120E4422DA
:1000260002036EE86480F8E933E83360110460F097
:10003600ED33EC337009E8FCE9FDEAFEEBFF220440
:1000460060DED3EB9FEA9EE99DE8C2E78CF0C2F73B
:1000560095F0400CE8CCF8E9CDF9EACEFAEBCFFB07
:1000660012033985D0F05804700320D5B3E8047024
:10007600075002B2D502037892D5EC0460F7E4CCBF
:10008600C0E0C398F8603B94186008400DD0E0FBD0
:10009600020350E4FBFAC9FC8028E830E406E4C910
:1000A600FBE4CAFCE830E305E4C9CACBFCE8540724
:1000B6006010F8C3E913F9EA13FAEB13FBEC13FC2F
:1000C600D8F130F52FC3E49CFCEF9BFFEE9AFEEDD2
:1000D60099FDD0E0FBEF4E4D4C701222DB0302037C
:1000E60075EC2CFCEF33FFEE33FEED33FDED30E720
:1000F600EB020350EF2BFFEE3AFEED39FDD0E0FBAD
:1001060050130BBB0003020378ED13FDEE13FEEF55
:0801160013FFEC13FC0203507F
:10011E00EC4D6011E8497017ED33EC3304600DE4DB
:10012E00FCFFFEFD22E933E8330470F802036E1281
:10013E00033958046009E4CC248150062850090282
:10014E000378284003020375C0E0EB4A7044B9807F
:10015E0006D0E0FB020364EF4E701CBD8008EBFF7F
:10016E00EAFEE9FD80EBE98DF0A4FEE5F002020760
:10017E00E9CDF9EAFEEBFFEF89F0A4FCE5F0CE89BC
:10018E00F0A42EFFE435F0CD89F0A42DFEE435F079
:10019E008067EF4E7005BD80D780C3EF8BF0A4ACA7
:1001AE00F0EE8BF0A42CFCE435F0F8EF8AF0A42CE2
:1001BE00E5F038FCE433CB8DF0A42CFCE5F03BF8F5
:1001CE00EE8AF0A42CFCE5F038F8E433CF89F0A4E5
:1001DE002CFCE5F038CF3400CE89F0A42FFFE5F0EB
:1001EE003EFEE433C98DF0A42EFEE5F039CD8AF043
:1001FE00A42FFFE5F03EFEE43DFD33D0E0FB5007BB
:10020E000BBB000F020378EC2CFCEF33FFEE33FE3A
:06021E00ED33FD02035068
:10022400020378EC5D046005E85904700302036E70
:10023400120339580460F6EC4860F2EC7004FDFED9
:10024400FF22C860DB2481C85009C39860025006AD
:100254000203759850CAF582E9294B4A7005AB82AE
:1002640002036475F0007C1A7880C3EF9BEE9AED6C
:1002740099400DC3EF9BFFEE9AFEED99FDE842F025
:10028400DC23ACF0D0E0FFD0E0FED0E0FDAB822078
:10029400E7101BEB60BAEC2CFCEF33FFEE33FEED02
:1002A40033FD020350E803F830E705C0F075F000B1
:1002B400EF2FFFEE33FEED33FD40B830E7C280AAE6
:1002C40075F020800E75F010800575F0087D007EB5
:1002D400007F003392D530D503120563EC33401010
:1002E400EF33FFEE33FEED33FDEC33FCD5F0ED22BE
:0E02F400E5F0247EA2D513CC92E7CDCEFF22FA
:10030200EDD2E7CD33EC3392D524814006E4FFFEF3
:10031200FDFC22FCE4CFCECDCC24E0501174FF8052
:10032200EDC3CC13CCCD13CDCE13CECF13CF0470EF
:07033200F030D5DE02056387
:10033900E9D2E7C933E833F892D5EDD2E7CD33EC0A
:0703490033FC5002B2D52283
:10035000EC30E7100FBF000C0EBE00080DBD00040E
:100360000BEB6014A2D5EB13FCED92E7FD2274FFBA
:10037000FCFDFEFF22E480F8A2D574FF13FC7D8013
:03038000E480EF27
:03000000020BB13F
:0C0BB100787FE4F6D8FD758120020BF877
:10038300BB010689828A83E0225002E722BBFE0278
:09039300E32289828A83E49322AB
:10039C00BB010CE58229F582E5833AF583E0225016
:1003AC0006E92582F8E622BBFE06E92582F8E22260
:0D03BC00E58229F582E5833AF583E493227A
:1003C900EF8DF0A4A8F0CF8CF0A428CE8DF0A42E48
:0203D900FE2202
:1003DB00BC000BBE0029EF8DF084FFADF022E4CC06
:1003EB00F875F008EF2FFFEE33FEEC33FCEE9DECCF
:1003FB00984005FCEE9DFE0FD5F0E9E4CEFD22ED15
:10040B00F8F5F0EE8420D21CFEADF075F008EF2F5E
:10041B00FFED33FD4007985006D5F0F222C398FD4F
:05042B000FD5F0EA22EC
:10043000C5F0F8A3E028F0C5F0F8E5821582700257
:060440001583E038F022F4
:10044600E88FF0A4CC8BF0A42CFCE98EF0A42CFC55
:100456008AF0EDA42CFCEA8EF0A4CDA8F08BF0A4D3
:100466002DCC3825F0FDE98FF0A42CCD35F0FCEB32
:100476008EF0A4FEA9F0EB8FF0A4CFC5F02ECD39F7
:0F048600FEE43CFCEAA42DCE35F0FDE43CFC2264
:1004950075F008758200EF2FFFEE33FECD33CDCC1E
:1004A50033CCC58233C5829BED9AEC99E5829840A1
:1004B5000CF582EE9BFEED9AFDEC99FC0FD5F0D67E
:1004C500E4CEFBE4CDFAE4CCF9A88222B800C1B9A8
:1004D5000059BA002DEC8BF084CFCECDFCE5F0CBE6
:1004E500F97818EF2FFFEE33FEED33FDEC33FCEB1F
:1004F50033FB10D703994004EB99FB0FD8E5E4F9DA
:10050500FA227818EF2FFFEE33FEED33FDEC33FCC6
:10051500C933C910D7059BE99A4007EC9BFCE99ABA
:10052500F90FD8E0E4C9FAE4CCFB2275F010EF2FFF
:10053500FFEE33FEED33FDCC33CCC833C810D707FF
:100545009BEC9AE899400AED9BFDEC9AFCE899F83A
:0E0555000FD5F0DAE4CDFBE4CCFAE4C8F922CD
:0E056300C3E49FFFE49EFEE49DFDE49CFC22A9
:10057100E8600FECC313FCED13FDEE13FEEF13FF68
:03058100D8F1228C
:0C058400ECF0A3EDF0A3EEF0A3EFF022EA
:10059000A8828583F0D083D0821205A71205A71206
:1005A00005A71205A7E473E493A3C583C5F0C5832B
:1005B000C8C582C8F0A3C583C5F0C583C8C582C8B5
:0105C0002218
:1005C100EF4E6012EF60010EEDBB010B89828A8351
:1005D100F0A3DFFCDEFA2289F05007F709DFFCA95E
:0C05E100F022BBFEFCF309DFFCA9F022B5
:100BBD000205EDE493A3F8E493A34003F68001F25C
:100BCD0008DFF48029E493A3F85407240CC8C33339
:100BDD00C4540F4420C8834004F456800146F6DF08
:100BED00E4800B0102040810204080900B24E47E69
:100BFD00019360BCA3FF543F30E509541FFEE493FD
:100C0D00A360010ECF54C025E060A840B8E493A3C3
:100C1D00FAE493A3F8E493A3C8C582C8CAC583CAEE
:100C2D00F0A3C8C582C8CAC583CADFE9DEE780BEA6
:010BB0000044
:00000001FF
